:0400000043EF06F0D4
:1008000009024300020100C0320904000001020293
:100810000100052400100104240202052406000141
:1008200005240100010705810308000209040100F5
:10083000020A0000000705020240000007058202CC
:100840004000003403500047004A00200055005388
:100850000042002000200020005400650063006872
:10086000006E006F006C006F006700790020004987
:10087000006E0063002E003403500047004A002041
:1008800000520053002D003200330032002000459A
:10089000006D0075006C006100740069006F006EEF
:1008A0000020002000200020002000120100020291
:1008B000000008D8040A0000010102000104030935
:1008C0000400A09A235008E02350D96EDA6ADF347E
:1008D000E836010B576E01D0576A586A58505710C6
:1008E00002E0A08A12003050030AD8B4306A3066A1
:1008F00001D0F7D73050020A0CE1010E516E536A55
:10090000526A546A020E76EC05F0236E030E306EC6
:10091000E8D73004E6E1400E316402D05A6E02D0CE
:1009200031C05AF05A50315E050E1C6E000E1B6A23
:100930005AC059F02E6622D00FD01EC0D9FF1FC05A
:10094000DAFF1BC0E1FF1CC0E2FFDFCFE7FF1B4A5D
:100950001C2A1E4A1F2A59065966EFD711D01EC0FD
:10096000D9FF1FC0DAFF1BC0E1FF1CC0E2FFDFCFD1
:10097000E7FF1B4A1C2A1E4A1F2A59065966EFD751
:10098000316606D05A50400A020ED8A4030E306ECB
:10099000010E516E0501050E536E526A5AC054F095
:1009A000020E76EC05F0236E9CD7A09A6A6A686AFC
:1009B000706A0F0E526E710E516E546A536A566A07
:1009C000020E556E04EC06F0160E6F6E9F0E6B6EE7
:1009D0007B0E696E596A5950040DF3500001A00F47
:1009E000D96EDA6ADE6ADE6ADE6ADD6A592A0B0EC1
:1009F0005964F1D76D8C6E6A6D986D9C05D06896C0
:100A00000C6A046A056A066A68B6F9D7010E2B6E8D
:100A10002C6E276A286A266A596A5950150FD96EB2
:100A2000DA6ADF6A5950180FD96EDA6ADF6A5950EC
:100A30000F0FD96EDA6ADF6A5950120FD96EDA6A6F
:100A4000DF6A592A020E5964E8D70001A80E156E14
:100A5000160E706E3D0EA26FA36B080EA16F840E72
:100A6000A06F4F6A2A6A1200E8CF59F02F6A24500B
:100A700008E02450D96EDA6ADF34E836010B5A6E8A
:100A800001D05A6A5B6A5B505A102EE12450D96E2D
:100A9000DA6AD92ADA6ADF50586E5750585C07E292
:100AA0002450D96EDA6AD92ADA6ADF50576E2F6A73
:100AB0000DD0400E2F24D96EDA6A050EDA22595075
:100AC0002F24E16EE26ADFCFE7FF2F2A57502F5C19
:100AD000F0E3516A0501050E536E400E526E546EDE
:100AE000020E76EC05F0246E2F501200E8CF55F080
:100AF000515003E05550150F02D05550180FD96EC4
:100B0000DA6ADF50566E566601D0000C5650D96E28
:100B1000DA6A020ED926DA6A52C0DEFF53C0DDFF60
:100B20005650D96EDA6AD92ADA6A54C0DFFF5650B5
:100B3000D96EDA6A400EDF165650D96EDA6A880E20
:100B4000DF12515003E05550150F02D05550180FC9
:100B5000D96EDA6A040EDF1A565012001F0E2A648C
:100B60001F0C6DB21F0C21A012D05E660ED0306635
:100B70000CD0000E526A516AE5EC05F0000E526A84
:100B8000516AE5EC05F0010E5E6E219001D05E6ABF
:100B9000306661EF04F0400E576E0001600E34ECD9
:100BA00005F05C6E5C500FE05D6A0AD05D5000019C
:100BB000600FD96EDA6ADF500A0AD8A4070A5D2AE4
:100BC0005C505D5CF3E361EF04F0A09A305002E00A
:100BD000A08A1200556A51C053F052C054F0552AF1
:100BE000552808E053C0D9FF54C0DAFF534A542AAD
:100BF000DF50F5E151C01EF052C01FF055C031F07A
:100C0000010E2E6E306EE4D751C057F052C058F02E
:100C100008D057C0D9FF58C0DAFF53C0DFFF574A8A
:100C2000582A5506D8A056065528D8B45628D8B400
:100C30001200EFD72A6612006D6A696A160E6F6E8F
:100C40009F0E6B6E7B0E696ED08EA28AA08AF28E8A
:100C500001D06D866DA6FDD7010E2A6E010C54ECF5
:100C600006F02A6603D01AEC06F08C802A0408E10C
:100C70008C90E80E80EC06F08C80E80E80EC06F09C
:100C8000AEEC05F0EED700EE60F0700EEE6AE8060E
:100C9000FDE100EE01F0500EEE6AE806FDE1000E07
:100CA000F86E00012FEF06F0B46AD08E9590219077
:100CB00098EC06F0D5EC04F08DEC06F064EC06F050
:100CC00094EC06F072EF06F0D59ED59CD59AD59699
:100CD000D584D582D580D66AD76AF194F28AF29407
:100CE000D58E1200D59ED59CD59AD596D584D58221
:100CF000D580D66AD76AF194F28AF294D58E120022
:100D0000E8CF52F00D0E516EFB0EE82EFED7512E9D
:100D1000FCD700D0522EF6D712000E0EC16EC26A5A
:100D2000080EC06EC280080CF292F18CF28812009C
:060D3000010E5E6E010CD5
:020000040020DA
:08000000FFFFFFFFFFFFFFFF00
:020000040030CA
:0E000000240E3F1EFF0181FF0FC00FE00F40D6
:00000001FF
